:100000005828FF3FFF3FFF3F05288C0003088D0065
:100010000B1183121A0885008F0B39288E0B392893
:10002000A6308F000E308E009208031D92039308B5
:10003000031D1D2894080319232801309402003061
:10004000031C013093029508031D29289608031903
:100050002F28013096020030031C01309502900ACF
:1000600010083F39031D3928A7143F088F070318CC
:100070008E0A9C0A88301C0703189C011A109D1BCD
:1000800048281C086723A9003523A90503191A1459
:100090001A119D1F1A151C1C52289C1C52289108CD
:1000A000031D910327140D0883008C0E0C0E09000C
:1000B0008B018312083085000030860083160830DB
:1000C0008100E430850000308600831203308A000E
:1000D0000C3084008001840A041F6A28A6308F0037
:1000E0000E308E0083309D00463099002830162156
:1000F000BF00051D512981018B168B178316E8302F
:1001000085003E210F301B05AB005623A0009A143A
:1001100004309200C32140239208031D8C289A10BA
:10012000AC011B0EB03E031C9A281B08803E03182E
:10013000A628A8281B08103E0318A528603E03180F
:10014000A628203E0318A728A828AC0AAC0AAC0AA7
:100150002C08AC0712212030AC072C081621930084
:100160002C0A162194009308031DB3289408031D3C
:10017000B32812219308031DB9289408031DB92838
:100180003E21AC011B0EB03E030103181030AC073A
:100190001B0E9E001E0D0E39AC070030AC072C085C
:1001A0001621940004309200402312219308031D6D
:1001B000DF2814080319F128043A0319E3289208E8
:1001C000031DD528D2289508031DD2289608031DA3
:1001D000D228043092000230950058309600092150
:1001E000D5282C0A1621940094080319B9289A10CE
:1001F0009D171B0EB03E031CB9281B08903E70399A
:10020000B03E031CB92812211F30200594072E216F
:10021000B92831309900C221D8210523DC21E821F9
:10022000322308002710271C132908008312890095
:1002300083160814831208080800831288008316A6
:100240008B13081555308900AA30890088148B1744
:10025000081E282908120811831208000330A30081
:100260003421A30B30290800031020183A29201B41
:1002700003143C29201F0314A00D08008316FF302F
:100280008600831206099B008316860183120800EC
:10029000A800280E0F39002328080F39002328084A
:1002A00008009E017F309F00051D51299E0B542997
:1002B0009F0B54298316E830850083123E219B084A
:1002C00003198B299A1481018B168B179E017F309D
:1002D0009F009E0B69299F0B6929C3213F08482174
:1002E000053092003E211B08F039031D7F2992083A
:1002F000031D7F29C32128301621482158289B1F20
:100300008329BF0386291B1E7229BF0A2830890052
:100310003F081D21662905158B13000005118B2947
:10032000A500190891009D139108031D9429250823
:100330000800A500190891009D179108031D9D292B
:1003400025080800BA21A529BD21BA21BA21080033
:10035000BA21AB29BD21BD21BD210800BA21B12997
:10036000BD21BD21BA210800BA21B729BD21BA217A
:10037000BD21080090219921080090219021902111
:100380009921080099219921992199210800B021EA
:10039000C429A221A621C429A521C429A821AC21B0
:1003A000C429B621C429AE21A621C429AB21C42960
:1003B000B121C429AA21C429A821A621C429B02178
:1003C000AC21C429AE21C429A221C429AC21C4294D
:1003D000B421C429A221AC21C429A821C429A42163
:1003E000AC21C429B621AC21C429B021A621C4293D
:1003F0007130990083309D00C321D621DA212F234B
:1004000008006930990083309D00C321D621DA218C
:10041000CC2108006330990083309D00C321D62190
:10042000DA21E42108005E30990083309D00C32169
:10043000D621DA21C92108005930990083309D0066
:10044000C321D621DA21142308008130990083309A
:100450009D00C321D621DA21080074309900803034
:100460009D00C4212323C4212323C4212323080066
:100470007430990081309D00C3212623C321262397
:1004800008007430990082309D00C3213223C321BB
:10049000322308007430990084309D00C321D32199
:1004A000C321D32108007430990085309D00C421F8
:1004B000D821C421D821C421D82108006630990050
:1004C00086309D00C321DC21C321DC21080074306B
:1004D000990087309D00C321EA21C321EA21080049
:1004E0006630990080309D00C321EF21C321EF21A8
:1004F00008006630990081309D00C321F521C32199
:10050000F52108005230990083309D00C321322329
:10051000DA21EF210800FF3FFF3FFF3FFF3FFF3F92
:10052000FF3FFF3FFF3FFF3FFF3FFF3FFF3FFF3FDB
:10053000FF3FFF3FFF3FFF3FFF3FFF3FFF3FFF3FCB
:10054000FF3FFF3FFF3FFF3FFF3FFF3FFF3FFF3FBB
:10055000FF3FFF3FFF3FFF3FFF3FFF3FFF3FFF3FAB
:10056000FF3FFF3FFF3FFF3FFF3FFF3FFF3FFF3F9B
:10057000FF3FFF3FFF3FFF3FFF3FFF3FFF3FFF3F8B
:10058000FF3FFF3FFF3FFF3FFF3FFF3FFF3FFF3F7B
:10059000FF3FFF3FFF3FFF3FFF3FFF3FFF3FFF3F6B
:1005A000FF3FFF3FFF3FFF3FFF3FFF3FFF3FFF3F5B
:1005B000FF3FFF3FFF3FFF3FFF3FFF3FFF3FFF3F4B
:1005C000FF3FFF3FFF3FFF3FFF3FFF3FFF3FFF3F3B
:1005D000FF3FFF3FFF3FFF3FFF3FFF3FFF3FFF3F2B
:1005E000FF3FFF3FFF3FFF3FFF3FFF3FFF3FFF3F1B
:1005F000FF3FFF3FFF3FFF3FFF3FFF3FFF3FFF3F0B
:100600000F39A200220722078207AA21AB21C429A1
:10061000A821AB21C429B421AB21C429A221AB213B
:10062000C429A221B721C429A221A521C429A4211A
:10063000A521C429B021A521C429AA21A521C42905
:10064000AA21B121C429B721C4290000A421A621CF
:10065000C429B121B121C429A421C4290000A621A3
:10066000C4290000B421A621C4291D080739820726
:1006700010344034013420340834023480340434DB
:100680009A143E211B080F39AB008207F829012A72
:100690000A2A132A1C2A252A2D2A382A412A4A2ABC
:1006A000532A5E2A672A702A792A822A8207FE3410
:1006B000CE345B3434344F344034543470347B346F
:1006C0003034E934BE34143463345734243482076C
:1006D000FF343B348D344334A0343434DA340E34B4
:1006E000A934633495341134EE342A3488345634C2
:1006F000B1342534CB340B34BC34723484340034FC
:10070000EB343F3499344734A0342034DE341A3487
:10071000AD34633481341534FA342E3488344234A1
:10072000B5343134CF340B34A834763490340434B7
:10073000EB342B349D345334A4342034CA341E3467
:10074000B934673481340134FE343A348C34423461
:10075000A1343534DB340F34A8346234943410348B
:10076000EF342B3489345734B0342434CA340A3447
:10077000BD34733485340134EA343E34983446341D
:10078000A1342134DF341B34AC346234803414346B
:10079000FB342F3489344334B4343034CE340A3407
:1007A000A934773491340534EA342A349C345234F1
:1007B000A5342134CB341F34B8346634803400344B
:1007C000A1342134DF341B34AC346234803414342B
:1007D000FB342F3489344334B4343034CE340A34C7
:1007E000A934773491340534EA342A349C345234B1
:1007F000A5342134CB341F34B8346634803400340B
:08400000FFFFFFFFFFFFFFFFC0
:02400E00F13F80
:104200001428146418602490285030C03CF03CF00E
:104210000C181414142814640C24103010403C00A2
:10422000000007080E101C20FFFFFFFFFFFFFFFF2D
:10423000FFFFFFFFFFFFFFFFFFFFFFFFFFFFFFFF8E
:00000001FF
